{
  "contractName": "LandRegistry",
  "abi": [
    {
      "constant": false,
      "inputs": [
        {
          "name": "_spender",
          "type": "address"
        },
        {
          "name": "_value",
          "type": "uint256"
        }
      ],
      "name": "approve",
      "outputs": [
        {
          "name": "",
          "type": "bool"
        }
      ],
      "payable": false,
      "stateMutability": "nonpayable",
      "type": "function"
    },
    {
      "constant": true,
      "inputs": [],
      "name": "totalSupply",
      "outputs": [
        {
          "name": "",
          "type": "uint256"
        }
      ],
      "payable": false,
      "stateMutability": "view",
      "type": "function"
    },
    {
      "constant": false,
      "inputs": [
        {
          "name": "_from",
          "type": "address"
        },
        {
          "name": "_to",
          "type": "address"
        },
        {
          "name": "_value",
          "type": "uint256"
        }
      ],
      "name": "transferFrom",
      "outputs": [
        {
          "name": "",
          "type": "bool"
        }
      ],
      "payable": false,
      "stateMutability": "nonpayable",
      "type": "function"
    },
    {
      "constant": true,
      "inputs": [
        {
          "name": "_propertyId",
          "type": "bytes32"
        }
      ],
      "name": "getStatus",
      "outputs": [
        {
          "name": "",
          "type": "bytes32"
        }
      ],
      "payable": false,
      "stateMutability": "view",
      "type": "function"
    },
    {
      "constant": false,
      "inputs": [
        {
          "name": "_spender",
          "type": "address"
        },
        {
          "name": "_subtractedValue",
          "type": "uint256"
        }
      ],
      "name": "decreaseApproval",
      "outputs": [
        {
          "name": "",
          "type": "bool"
        }
      ],
      "payable": false,
      "stateMutability": "nonpayable",
      "type": "function"
    },
    {
      "constant": true,
      "inputs": [
        {
          "name": "_owner",
          "type": "address"
        }
      ],
      "name": "balanceOf",
      "outputs": [
        {
          "name": "",
          "type": "uint256"
        }
      ],
      "payable": false,
      "stateMutability": "view",
      "type": "function"
    },
    {
      "constant": false,
      "inputs": [
        {
          "name": "_propertyId",
          "type": "bytes32"
        },
        {
          "name": "_owner",
          "type": "address"
        },
        {
          "name": "_created",
          "type": "uint256"
        }
      ],
      "name": "addOwner",
      "outputs": [],
      "payable": false,
      "stateMutability": "nonpayable",
      "type": "function"
    },
    {
      "constant": false,
      "inputs": [
        {
          "name": "_propertyId",
          "type": "bytes32"
        },
        {
          "name": "_surveyNo",
          "type": "bytes32"
        },
        {
          "name": "_landType",
          "type": "bytes32"
        },
        {
          "name": "_area",
          "type": "uint256"
        },
        {
          "name": "_openParking",
          "type": "uint256"
        },
        {
          "name": "_coveredParking",
          "type": "uint256"
        },
        {
          "name": "_floorNo",
          "type": "uint8"
        },
        {
          "name": "_owner",
          "type": "address"
        },
        {
          "name": "_status",
          "type": "bytes32"
        },
        {
          "name": "_created",
          "type": "uint256"
        }
      ],
      "name": "addProperty",
      "outputs": [],
      "payable": false,
      "stateMutability": "nonpayable",
      "type": "function"
    },
    {
      "constant": false,
      "inputs": [
        {
          "name": "_to",
          "type": "address"
        },
        {
          "name": "_value",
          "type": "uint256"
        }
      ],
      "name": "transfer",
      "outputs": [
        {
          "name": "",
          "type": "bool"
        }
      ],
      "payable": false,
      "stateMutability": "nonpayable",
      "type": "function"
    },
    {
      "constant": false,
      "inputs": [
        {
          "name": "_spender",
          "type": "address"
        },
        {
          "name": "_addedValue",
          "type": "uint256"
        }
      ],
      "name": "increaseApproval",
      "outputs": [
        {
          "name": "",
          "type": "bool"
        }
      ],
      "payable": false,
      "stateMutability": "nonpayable",
      "type": "function"
    },
    {
      "constant": true,
      "inputs": [
        {
          "name": "_owner",
          "type": "address"
        },
        {
          "name": "_spender",
          "type": "address"
        }
      ],
      "name": "allowance",
      "outputs": [
        {
          "name": "",
          "type": "uint256"
        }
      ],
      "payable": false,
      "stateMutability": "view",
      "type": "function"
    },
    {
      "inputs": [],
      "payable": false,
      "stateMutability": "nonpayable",
      "type": "constructor"
    },
    {
      "anonymous": false,
      "inputs": [
        {
          "indexed": false,
          "name": "registryId",
          "type": "bytes32"
        },
        {
          "indexed": false,
          "name": "propertyId",
          "type": "bytes32"
        },
        {
          "indexed": false,
          "name": "owner",
          "type": "address"
        },
        {
          "indexed": false,
          "name": "sellPrice",
          "type": "uint256"
        },
        {
          "indexed": false,
          "name": "tokenAmount",
          "type": "uint256"
        },
        {
          "indexed": false,
          "name": "created",
          "type": "uint256"
        }
      ],
      "name": "AddRegistryRecord",
      "type": "event"
    },
    {
      "anonymous": false,
      "inputs": [
        {
          "indexed": false,
          "name": "registryId",
          "type": "bytes32"
        },
        {
          "indexed": false,
          "name": "propertyId",
          "type": "bytes32"
        },
        {
          "indexed": false,
          "name": "buyer",
          "type": "address"
        },
        {
          "indexed": false,
          "name": "created",
          "type": "uint256"
        }
      ],
      "name": "AddBuyer",
      "type": "event"
    },
    {
      "anonymous": false,
      "inputs": [
        {
          "indexed": false,
          "name": "registryId",
          "type": "bytes32"
        },
        {
          "indexed": false,
          "name": "propertyId",
          "type": "bytes32"
        },
        {
          "indexed": false,
          "name": "ownersFinancer",
          "type": "address"
        },
        {
          "indexed": false,
          "name": "loanAmount",
          "type": "uint256"
        },
        {
          "indexed": false,
          "name": "outstandingLoan",
          "type": "uint256"
        },
        {
          "indexed": false,
          "name": "created",
          "type": "uint256"
        }
      ],
      "name": "AddOwnerFinancer",
      "type": "event"
    },
    {
      "anonymous": false,
      "inputs": [
        {
          "indexed": false,
          "name": "registryId",
          "type": "bytes32"
        },
        {
          "indexed": false,
          "name": "propertyId",
          "type": "bytes32"
        },
        {
          "indexed": false,
          "name": "buyersFinancer",
          "type": "address"
        },
        {
          "indexed": false,
          "name": "buyerFinanceAmount",
          "type": "uint256"
        },
        {
          "indexed": false,
          "name": "created",
          "type": "uint256"
        }
      ],
      "name": "AddBuyerFinancer",
      "type": "event"
    },
    {
      "anonymous": false,
      "inputs": [
        {
          "indexed": false,
          "name": "registryId",
          "type": "bytes32"
        },
        {
          "indexed": false,
          "name": "propertyId",
          "type": "bytes32"
        },
        {
          "indexed": false,
          "name": "registartionCharges",
          "type": "uint256"
        },
        {
          "indexed": false,
          "name": "created",
          "type": "uint256"
        }
      ],
      "name": "SetRegistrationFees",
      "type": "event"
    },
    {
      "anonymous": false,
      "inputs": [
        {
          "indexed": false,
          "name": "registryId",
          "type": "bytes32"
        },
        {
          "indexed": false,
          "name": "propertyId",
          "type": "bytes32"
        },
        {
          "indexed": false,
          "name": "status",
          "type": "bytes32"
        },
        {
          "indexed": false,
          "name": "created",
          "type": "uint256"
        }
      ],
      "name": "SetStatus",
      "type": "event"
    },
    {
      "anonymous": false,
      "inputs": [
        {
          "indexed": false,
          "name": "registryId",
          "type": "bytes32"
        },
        {
          "indexed": false,
          "name": "propertyId",
          "type": "bytes32"
        },
        {
          "indexed": false,
          "name": "transactionType",
          "type": "bytes32"
        },
        {
          "indexed": false,
          "name": "from",
          "type": "address"
        },
        {
          "indexed": false,
          "name": "to",
          "type": "address"
        },
        {
          "indexed": false,
          "name": "amount",
          "type": "uint256"
        },
        {
          "indexed": false,
          "name": "created",
          "type": "uint256"
        }
      ],
      "name": "TransferTokens",
      "type": "event"
    },
    {
      "anonymous": false,
      "inputs": [
        {
          "indexed": true,
          "name": "owner",
          "type": "address"
        },
        {
          "indexed": true,
          "name": "spender",
          "type": "address"
        },
        {
          "indexed": false,
          "name": "value",
          "type": "uint256"
        }
      ],
      "name": "Approval",
      "type": "event"
    },
    {
      "anonymous": false,
      "inputs": [
        {
          "indexed": true,
          "name": "from",
          "type": "address"
        },
        {
          "indexed": true,
          "name": "to",
          "type": "address"
        },
        {
          "indexed": false,
          "name": "value",
          "type": "uint256"
        }
      ],
      "name": "Transfer",
      "type": "event"
    },
    {
      "anonymous": false,
      "inputs": [
        {
          "indexed": false,
          "name": "propertyId",
          "type": "bytes32"
        },
        {
          "indexed": false,
          "name": "surveyNo",
          "type": "bytes32"
        },
        {
          "indexed": false,
          "name": "landType",
          "type": "bytes32"
        },
        {
          "indexed": false,
          "name": "area",
          "type": "uint256"
        },
        {
          "indexed": false,
          "name": "openParking",
          "type": "uint256"
        },
        {
          "indexed": false,
          "name": "coveredParking",
          "type": "uint256"
        },
        {
          "indexed": false,
          "name": "floorNo",
          "type": "uint8"
        },
        {
          "indexed": false,
          "name": "owner",
          "type": "address"
        },
        {
          "indexed": false,
          "name": "created",
          "type": "uint256"
        }
      ],
      "name": "AddProperty",
      "type": "event"
    },
    {
      "anonymous": false,
      "inputs": [
        {
          "indexed": false,
          "name": "propertyId",
          "type": "bytes32"
        },
        {
          "indexed": false,
          "name": "owner",
          "type": "address"
        },
        {
          "indexed": false,
          "name": "created",
          "type": "uint256"
        }
      ],
      "name": "AddOwner",
      "type": "event"
    },
    {
      "anonymous": false,
      "inputs": [
        {
          "indexed": false,
          "name": "propertyId",
          "type": "bytes32"
        },
        {
          "indexed": false,
          "name": "status",
          "type": "bytes32"
        },
        {
          "indexed": false,
          "name": "created",
          "type": "uint256"
        }
      ],
      "name": "SetStatus",
      "type": "event"
    },
    {
      "constant": true,
      "inputs": [
        {
          "name": "_address",
          "type": "address"
        }
      ],
      "name": "getBalance",
      "outputs": [
        {
          "name": "",
          "type": "uint256"
        }
      ],
      "payable": false,
      "stateMutability": "view",
      "type": "function"
    },
    {
      "constant": true,
      "inputs": [],
      "name": "getTotalSupply",
      "outputs": [
        {
          "name": "",
          "type": "uint256"
        }
      ],
      "payable": false,
      "stateMutability": "view",
      "type": "function"
    },
    {
      "constant": false,
      "inputs": [
        {
          "name": "_tokens",
          "type": "uint256"
        }
      ],
      "name": "addTokenSupply",
      "outputs": [],
      "payable": false,
      "stateMutability": "nonpayable",
      "type": "function"
    },
    {
      "constant": false,
      "inputs": [
        {
          "name": "_registryId",
          "type": "bytes32"
        },
        {
          "name": "_propertyId",
          "type": "bytes32"
        },
        {
          "name": "_owner",
          "type": "address"
        },
        {
          "name": "_sellPrice",
          "type": "uint256"
        },
        {
          "name": "_tokenAmount",
          "type": "uint256"
        },
        {
          "name": "_created",
          "type": "uint256"
        }
      ],
      "name": "addRegistryRecord",
      "outputs": [],
      "payable": false,
      "stateMutability": "nonpayable",
      "type": "function"
    },
    {
      "constant": false,
      "inputs": [
        {
          "name": "_registryId",
          "type": "bytes32"
        },
        {
          "name": "_propertyId",
          "type": "bytes32"
        },
        {
          "name": "_buyer",
          "type": "address"
        },
        {
          "name": "_created",
          "type": "uint256"
        }
      ],
      "name": "addBuyer",
      "outputs": [],
      "payable": false,
      "stateMutability": "nonpayable",
      "type": "function"
    },
    {
      "constant": false,
      "inputs": [
        {
          "name": "_registryId",
          "type": "bytes32"
        },
        {
          "name": "_propertyId",
          "type": "bytes32"
        },
        {
          "name": "_ownersFinancer",
          "type": "address"
        },
        {
          "name": "_loanAmount",
          "type": "uint256"
        },
        {
          "name": "_outstandingLoan",
          "type": "uint256"
        },
        {
          "name": "_created",
          "type": "uint256"
        }
      ],
      "name": "addOwnerFinancer",
      "outputs": [],
      "payable": false,
      "stateMutability": "nonpayable",
      "type": "function"
    },
    {
      "constant": false,
      "inputs": [
        {
          "name": "_registryId",
          "type": "bytes32"
        },
        {
          "name": "_propertyId",
          "type": "bytes32"
        },
        {
          "name": "_buyersFinancer",
          "type": "address"
        },
        {
          "name": "_buyerFinanceAmount",
          "type": "uint256"
        },
        {
          "name": "_created",
          "type": "uint256"
        }
      ],
      "name": "addBuyerFinancer",
      "outputs": [],
      "payable": false,
      "stateMutability": "nonpayable",
      "type": "function"
    },
    {
      "constant": false,
      "inputs": [
        {
          "name": "_registryId",
          "type": "bytes32"
        },
        {
          "name": "_propertyId",
          "type": "bytes32"
        },
        {
          "name": "_registartionCharges",
          "type": "uint256"
        },
        {
          "name": "_created",
          "type": "uint256"
        }
      ],
      "name": "setRegistrationFees",
      "outputs": [],
      "payable": false,
      "stateMutability": "nonpayable",
      "type": "function"
    },
    {
      "constant": false,
      "inputs": [
        {
          "name": "_registryId",
          "type": "bytes32"
        },
        {
          "name": "_propertyId",
          "type": "bytes32"
        },
        {
          "name": "_status",
          "type": "bytes32"
        },
        {
          "name": "_created",
          "type": "uint256"
        }
      ],
      "name": "setStatus",
      "outputs": [],
      "payable": false,
      "stateMutability": "nonpayable",
      "type": "function"
    },
    {
      "constant": false,
      "inputs": [
        {
          "name": "_propertyId",
          "type": "bytes32"
        },
        {
          "name": "_status",
          "type": "bytes32"
        },
        {
          "name": "_created",
          "type": "uint256"
        }
      ],
      "name": "setStatus",
      "outputs": [],
      "payable": false,
      "stateMutability": "nonpayable",
      "type": "function"
    },
    {
      "constant": false,
      "inputs": [
        {
          "name": "_registryId",
          "type": "bytes32"
        },
        {
          "name": "_propertyId",
          "type": "bytes32"
        },
        {
          "name": "_transactionType",
          "type": "bytes32"
        },
        {
          "name": "_from",
          "type": "address"
        },
        {
          "name": "_to",
          "type": "address"
        },
        {
          "name": "_amount",
          "type": "uint256"
        },
        {
          "name": "_created",
          "type": "uint256"
        }
      ],
      "name": "transferTokens",
      "outputs": [],
      "payable": false,
      "stateMutability": "nonpayable",
      "type": "function"
    },
    {
      "constant": false,
      "inputs": [],
      "name": "fallback",
      "outputs": [],
      "payable": true,
      "stateMutability": "payable",
      "type": "function"
    },
    {
      "constant": false,
      "inputs": [],
      "name": "close",
      "outputs": [],
      "payable": false,
      "stateMutability": "nonpayable",
      "type": "function"
    }
  ],
  "bytecode": "0x608060405234801561001057600080fd5b50336000806101000a81548173ffffffffffffffffffffffffffffffffffffffff021916908373ffffffffffffffffffffffffffffffffffffffff16021790555033600660006101000a81548173ffffffffffffffffffffffffffffffffffffffff021916908373ffffffffffffffffffffffffffffffffffffffff16021790555064e8d4a5100060048190555064e8d4a51000600360003373ffffffffffffffffffffffffffffffffffffffff1673ffffffffffffffffffffffffffffffffffffffff16815260200190815260200160002081905550612915806100f66000396000f30060806040526004361061013e576000357c0100000000000000000000000000000000000000000000000000000000900463ffffffff168063095ea7b3146101435780630998dc51146101a85780630cc91966146101fb57806318160ddd14610278578063211cb335146102a357806323b872dd146102ec5780633aeae8b6146103715780633dc2600a146103e457806343d726d61461044d578063552079dc146104645780635de28ae01461046e57806366188463146104bb57806370a08231146105205780637935e145146105775780639593c932146105d2578063a9059cbb14610682578063c4e41b22146106e7578063d24ea19814610712578063d251855f1461078f578063d73dd623146107e6578063dd62ed3e1461084b578063dfa0ffc1146108c2578063f18d4dbb14610963578063f8b2cb4f14610990575b600080fd5b34801561014f57600080fd5b5061018e600480360381019080803573ffffffffffffffffffffffffffffffffffffffff169060200190929190803590602001909291905050506109e7565b604051808215151515815260200191505060405180910390f35b3480156101b457600080fd5b506101f9600480360381019080803560001916906020019092919080356000191690602001909291908035906020019092919080359060200190929190505050610ad9565b005b34801561020757600080fd5b5061027660048036038101908080356000191690602001909291908035600019169060200190929190803573ffffffffffffffffffffffffffffffffffffffff169060200190929190803590602001909291908035906020019092919080359060200190929190505050610bf3565b005b34801561028457600080fd5b5061028d610dcb565b6040518082815260200191505060405180910390f35b3480156102af57600080fd5b506102ea6004803603810190808035600019169060200190929190803560001916906020019092919080359060200190929190505050610dd5565b005b3480156102f857600080fd5b50610357600480360381019080803573ffffffffffffffffffffffffffffffffffffffff169060200190929190803573ffffffffffffffffffffffffffffffffffffffff16906020019092919080359060200190929190505050610eea565b604051808215151515815260200191505060405180910390f35b34801561037d57600080fd5b506103e260048036038101908080356000191690602001909291908035600019169060200190929190803573ffffffffffffffffffffffffffffffffffffffff16906020019092919080359060200190929190803590602001909291905050506112aa565b005b3480156103f057600080fd5b5061044b60048036038101908080356000191690602001909291908035600019169060200190929190803573ffffffffffffffffffffffffffffffffffffffff16906020019092919080359060200190929190505050611456565b005b34801561045957600080fd5b506104626115d6565b005b61046c61166d565b005b34801561047a57600080fd5b5061049d600480360381019080803560001916906020019092919050505061166f565b60405180826000191660001916815260200191505060405180910390f35b3480156104c757600080fd5b50610506600480360381019080803573ffffffffffffffffffffffffffffffffffffffff169060200190929190803590602001909291905050506116cd565b604051808215151515815260200191505060405180910390f35b34801561052c57600080fd5b50610561600480360381019080803573ffffffffffffffffffffffffffffffffffffffff16906020019092919050505061195f565b6040518082815260200191505060405180910390f35b34801561058357600080fd5b506105d06004803603810190808035600019169060200190929190803573ffffffffffffffffffffffffffffffffffffffff169060200190929190803590602001909291905050506119a8565b005b3480156105de57600080fd5b50610680600480360381019080803560001916906020019092919080356000191690602001909291908035600019169060200190929190803590602001909291908035906020019092919080359060200190929190803560ff169060200190929190803573ffffffffffffffffffffffffffffffffffffffff169060200190929190803560001916906020019092919080359060200190929190505050611b3c565b005b34801561068e57600080fd5b506106cd600480360381019080803573ffffffffffffffffffffffffffffffffffffffff16906020019092919080359060200190929190505050611e67565b604051808215151515815260200191505060405180910390f35b3480156106f357600080fd5b506106fc61208c565b6040518082815260200191505060405180910390f35b34801561071e57600080fd5b5061078d60048036038101908080356000191690602001909291908035600019169060200190929190803573ffffffffffffffffffffffffffffffffffffffff169060200190929190803590602001909291908035906020019092919080359060200190929190505050612096565b005b34801561079b57600080fd5b506107e4600480360381019080803560001916906020019092919080356000191690602001909291908035600019169060200190929190803590602001909291905050506122ca565b005b3480156107f257600080fd5b50610831600480360381019080803573ffffffffffffffffffffffffffffffffffffffff169060200190929190803590602001909291905050506123f0565b604051808215151515815260200191505060405180910390f35b34801561085757600080fd5b506108ac600480360381019080803573ffffffffffffffffffffffffffffffffffffffff169060200190929190803573ffffffffffffffffffffffffffffffffffffffff1690602001909291905050506125ec565b6040518082815260200191505060405180910390f35b3480156108ce57600080fd5b50610961600480360381019080803560001916906020019092919080356000191690602001909291908035600019169060200190929190803573ffffffffffffffffffffffffffffffffffffffff169060200190929190803573ffffffffffffffffffffffffffffffffffffffff1690602001909291908035906020019092919080359060200190929190505050612673565b005b34801561096f57600080fd5b5061098e600480360381019080803590602001909291905050506127af565b005b34801561099c57600080fd5b506109d1600480360381019080803573ffffffffffffffffffffffffffffffffffffffff16906020019092919050505061286b565b6040518082815260200191505060405180910390f35b600081600560003373ffffffffffffffffffffffffffffffffffffffff1673ffffffffffffffffffffffffffffffffffffffff16815260200190815260200160002060008573ffffffffffffffffffffffffffffffffffffffff1673ffffffffffffffffffffffffffffffffffffffff168152602001908152602001600020819055508273ffffffffffffffffffffffffffffffffffffffff163373ffffffffffffffffffffffffffffffffffffffff167f8c5be1e5ebec7d5bd14f71427d1e84f3dd0314c0f7b2291e5b200ac8c7c3b925846040518082815260200191505060405180910390a36001905092915050565b600660009054906101000a900473ffffffffffffffffffffffffffffffffffffffff1673ffffffffffffffffffffffffffffffffffffffff163373ffffffffffffffffffffffffffffffffffffffff16141515610b3557600080fd5b8360086000826000191660001916815260200190815260200160002060009054906101000a900460ff161515610b6a57600080fd5b82600760008760001916600019168152602001908152602001600020600b01819055507f34e2f4b87e877f84f9bdc9bcf2632d51bc0dfb8a9206dfb5ed0acf235507a49585858585604051808560001916600019168152602001846000191660001916815260200183815260200182815260200194505050505060405180910390a15050505050565b600660009054906101000a900473ffffffffffffffffffffffffffffffffffffffff1673ffffffffffffffffffffffffffffffffffffffff163373ffffffffffffffffffffffffffffffffffffffff16141515610c4f57600080fd5b8560086000826000191660001916815260200190815260200160002060009054906101000a900460ff161515610c8457600080fd5b8460076000896000191660001916815260200190815260200160002060030160006101000a81548173ffffffffffffffffffffffffffffffffffffffff021916908373ffffffffffffffffffffffffffffffffffffffff160217905550836007600089600019166000191681526020019081526020016000206004018190555082600760008960001916600019168152602001908152602001600020600501819055507f8c65c5f5df0ea5bc4a6782f3a071b7b79d97962589fe269999164f3da3f8379687878787878760405180876000191660001916815260200186600019166000191681526020018573ffffffffffffffffffffffffffffffffffffffff1673ffffffffffffffffffffffffffffffffffffffff168152602001848152602001838152602001828152602001965050505050505060405180910390a150505050505050565b6000600454905090565b600660009054906101000a900473ffffffffffffffffffffffffffffffffffffffff1673ffffffffffffffffffffffffffffffffffffffff163373ffffffffffffffffffffffffffffffffffffffff16141515610e3157600080fd5b8260026000826000191660001916815260200190815260200160002060009054906101000a900460ff161515610e6657600080fd5b8260016000866000191660001916815260200190815260200160002060070181600019169055507f90c0e5c4cf2a06aa3aa5f8550cae741e2127b3dd21c8e18e05d59f509b8836638484846040518084600019166000191681526020018360001916600019168152602001828152602001935050505060405180910390a150505050565b6000600360008573ffffffffffffffffffffffffffffffffffffffff1673ffffffffffffffffffffffffffffffffffffffff168152602001908152602001600020548211151515610f3a57600080fd5b600560008573ffffffffffffffffffffffffffffffffffffffff1673ffffffffffffffffffffffffffffffffffffffff16815260200190815260200160002060003373ffffffffffffffffffffffffffffffffffffffff1673ffffffffffffffffffffffffffffffffffffffff168152602001908152602001600020548211151515610fc557600080fd5b600073ffffffffffffffffffffffffffffffffffffffff168373ffffffffffffffffffffffffffffffffffffffff161415151561100157600080fd5b61105382600360008773ffffffffffffffffffffffffffffffffffffffff1673ffffffffffffffffffffffffffffffffffffffff168152602001908152602001600020546128b490919063ffffffff16565b600360008673ffffffffffffffffffffffffffffffffffffffff1673ffffffffffffffffffffffffffffffffffffffff168152602001908152602001600020819055506110e882600360008673ffffffffffffffffffffffffffffffffffffffff1673ffffffffffffffffffffffffffffffffffffffff168152602001908152602001600020546128cd90919063ffffffff16565b600360008573ffffffffffffffffffffffffffffffffffffffff1673ffffffffffffffffffffffffffffffffffffffff168152602001908152602001600020819055506111ba82600560008773ffffffffffffffffffffffffffffffffffffffff1673ffffffffffffffffffffffffffffffffffffffff16815260200190815260200160002060003373ffffffffffffffffffffffffffffffffffffffff1673ffffffffffffffffffffffffffffffffffffffff168152602001908152602001600020546128b490919063ffffffff16565b600560008673ffffffffffffffffffffffffffffffffffffffff1673ffffffffffffffffffffffffffffffffffffffff16815260200190815260200160002060003373ffffffffffffffffffffffffffffffffffffffff1673ffffffffffffffffffffffffffffffffffffffff168152602001908152602001600020819055508273ffffffffffffffffffffffffffffffffffffffff168473ffffffffffffffffffffffffffffffffffffffff167fddf252ad1be2c89b69c2b068fc378daa952ba7f163c4a11628f55a4df523b3ef846040518082815260200191505060405180910390a3600190509392505050565b600660009054906101000a900473ffffffffffffffffffffffffffffffffffffffff1673ffffffffffffffffffffffffffffffffffffffff163373ffffffffffffffffffffffffffffffffffffffff1614151561130657600080fd5b8460086000826000191660001916815260200190815260200160002060009054906101000a900460ff16151561133b57600080fd5b8360076000886000191660001916815260200190815260200160002060060160006101000a81548173ffffffffffffffffffffffffffffffffffffffff021916908373ffffffffffffffffffffffffffffffffffffffff16021790555082600760008860001916600019168152602001908152602001600020600701819055507fd361fbc9d937e70bae6a670339a03ec6e32e3dec3ce648d3b8902548936db7db868686868660405180866000191660001916815260200185600019166000191681526020018473ffffffffffffffffffffffffffffffffffffffff1673ffffffffffffffffffffffffffffffffffffffff1681526020018381526020018281526020019550505050505060405180910390a1505050505050565b600660009054906101000a900473ffffffffffffffffffffffffffffffffffffffff1673ffffffffffffffffffffffffffffffffffffffff163373ffffffffffffffffffffffffffffffffffffffff161415156114b257600080fd5b8360086000826000191660001916815260200190815260200160002060009054906101000a900460ff1615156114e757600080fd5b8260076000876000191660001916815260200190815260200160002060020160006101000a81548173ffffffffffffffffffffffffffffffffffffffff021916908373ffffffffffffffffffffffffffffffffffffffff1602179055507f058962e08002579f3c9a0a0542891dda2228c0d2aaeb81e4029ad7dfdc0eb0398585858560405180856000191660001916815260200184600019166000191681526020018373ffffffffffffffffffffffffffffffffffffffff1673ffffffffffffffffffffffffffffffffffffffff16815260200182815260200194505050505060405180910390a15050505050565b600660009054906101000a900473ffffffffffffffffffffffffffffffffffffffff1673ffffffffffffffffffffffffffffffffffffffff163373ffffffffffffffffffffffffffffffffffffffff1614151561163257600080fd5b600660009054906101000a900473ffffffffffffffffffffffffffffffffffffffff1673ffffffffffffffffffffffffffffffffffffffff16ff5b565b60008160026000826000191660001916815260200190815260200160002060009054906101000a900460ff1615156116a657600080fd5b60016000846000191660001916815260200190815260200160002060070154915050919050565b600080600560003373ffffffffffffffffffffffffffffffffffffffff1673ffffffffffffffffffffffffffffffffffffffff16815260200190815260200160002060008573ffffffffffffffffffffffffffffffffffffffff1673ffffffffffffffffffffffffffffffffffffffff16815260200190815260200160002054905080831015156117df576000600560003373ffffffffffffffffffffffffffffffffffffffff1673ffffffffffffffffffffffffffffffffffffffff16815260200190815260200160002060008673ffffffffffffffffffffffffffffffffffffffff1673ffffffffffffffffffffffffffffffffffffffff16815260200190815260200160002081905550611873565b6117f283826128b490919063ffffffff16565b600560003373ffffffffffffffffffffffffffffffffffffffff1673ffffffffffffffffffffffffffffffffffffffff16815260200190815260200160002060008673ffffffffffffffffffffffffffffffffffffffff1673ffffffffffffffffffffffffffffffffffffffff168152602001908152602001600020819055505b8373ffffffffffffffffffffffffffffffffffffffff163373ffffffffffffffffffffffffffffffffffffffff167f8c5be1e5ebec7d5bd14f71427d1e84f3dd0314c0f7b2291e5b200ac8c7c3b925600560003373ffffffffffffffffffffffffffffffffffffffff1673ffffffffffffffffffffffffffffffffffffffff16815260200190815260200160002060008873ffffffffffffffffffffffffffffffffffffffff1673ffffffffffffffffffffffffffffffffffffffff168152602001908152602001600020546040518082815260200191505060405180910390a3600191505092915050565b6000600360008373ffffffffffffffffffffffffffffffffffffffff1673ffffffffffffffffffffffffffffffffffffffff168152602001908152602001600020549050919050565b600660009054906101000a900473ffffffffffffffffffffffffffffffffffffffff1673ffffffffffffffffffffffffffffffffffffffff163373ffffffffffffffffffffffffffffffffffffffff16141515611a0457600080fd5b8260026000826000191660001916815260200190815260200160002060009054906101000a900460ff161515611a3957600080fd5b6001600085600019166000191681526020019081526020016000206006018390806001815401808255809150509060018203906000526020600020016000909192909190916101000a81548173ffffffffffffffffffffffffffffffffffffffff021916908373ffffffffffffffffffffffffffffffffffffffff160217905550507ff74d419ebdc1791db7974a209414e8be1f2608830929fc6f4cedf25e5afc34da8484846040518084600019166000191681526020018373ffffffffffffffffffffffffffffffffffffffff1673ffffffffffffffffffffffffffffffffffffffff168152602001828152602001935050505060405180910390a150505050565b600660009054906101000a900473ffffffffffffffffffffffffffffffffffffffff1673ffffffffffffffffffffffffffffffffffffffff163373ffffffffffffffffffffffffffffffffffffffff16141515611b9857600080fd5b8960026000826000191660001916815260200190815260200160002060009054906101000a900460ff16151515611bce57600080fd5b89600160008d60001916600019168152602001908152602001600020600001816000191690555088600160008d60001916600019168152602001908152602001600020600101816000191690555087600160008d600019166000191681526020019081526020016000206002018190555086600160008d600019166000191681526020019081526020016000206003018190555085600160008d600019166000191681526020019081526020016000206004018190555084600160008d6000191660001916815260200190815260200160002060050160006101000a81548160ff021916908360ff160217905550600160008c600019166000191681526020019081526020016000206006018490806001815401808255809150509060018203906000526020600020016000909192909190916101000a81548173ffffffffffffffffffffffffffffffffffffffff021916908373ffffffffffffffffffffffffffffffffffffffff1602179055505082600160008d6000191660001916815260200190815260200160002060070181600019169055506001600260008d6000191660001916815260200190815260200160002060006101000a81548160ff0219169083151502179055507f3f80abcf4ced220fffe1886ed472f749f81b58d6afc8562fa9b3df6ee4edc3758b8b8b8b8b8b8b8b8a604051808a60001916600019168152602001896000191660001916815260200188600019166000191681526020018781526020018681526020018581526020018460ff1660ff1681526020018373ffffffffffffffffffffffffffffffffffffffff1673ffffffffffffffffffffffffffffffffffffffff168152602001828152602001995050505050505050505060405180910390a15050505050505050505050565b6000600360003373ffffffffffffffffffffffffffffffffffffffff1673ffffffffffffffffffffffffffffffffffffffff168152602001908152602001600020548211151515611eb757600080fd5b600073ffffffffffffffffffffffffffffffffffffffff168373ffffffffffffffffffffffffffffffffffffffff1614151515611ef357600080fd5b611f4582600360003373ffffffffffffffffffffffffffffffffffffffff1673ffffffffffffffffffffffffffffffffffffffff168152602001908152602001600020546128b490919063ffffffff16565b600360003373ffffffffffffffffffffffffffffffffffffffff1673ffffffffffffffffffffffffffffffffffffffff16815260200190815260200160002081905550611fda82600360008673ffffffffffffffffffffffffffffffffffffffff1673ffffffffffffffffffffffffffffffffffffffff168152602001908152602001600020546128cd90919063ffffffff16565b600360008573ffffffffffffffffffffffffffffffffffffffff1673ffffffffffffffffffffffffffffffffffffffff168152602001908152602001600020819055508273ffffffffffffffffffffffffffffffffffffffff163373ffffffffffffffffffffffffffffffffffffffff167fddf252ad1be2c89b69c2b068fc378daa952ba7f163c4a11628f55a4df523b3ef846040518082815260200191505060405180910390a36001905092915050565b6000600454905090565b600660009054906101000a900473ffffffffffffffffffffffffffffffffffffffff1673ffffffffffffffffffffffffffffffffffffffff163373ffffffffffffffffffffffffffffffffffffffff161415156120f257600080fd5b8560086000826000191660001916815260200190815260200160002060009054906101000a900460ff1615151561212857600080fd5b8560076000896000191660001916815260200190815260200160002060000181600019169055508460076000896000191660001916815260200190815260200160002060010160006101000a81548173ffffffffffffffffffffffffffffffffffffffff021916908373ffffffffffffffffffffffffffffffffffffffff160217905550836007600089600019166000191681526020019081526020016000206009018190555082600760008960001916600019168152602001908152602001600020600a0181905550600160086000896000191660001916815260200190815260200160002060006101000a81548160ff0219169083151502179055507fb31f6e92ac41202ba0e20fae35bcb5c980b26f5773089cb3e3898023e4c1ad7f87878787878760405180876000191660001916815260200186600019166000191681526020018573ffffffffffffffffffffffffffffffffffffffff1673ffffffffffffffffffffffffffffffffffffffff168152602001848152602001838152602001828152602001965050505050505060405180910390a150505050505050565b600660009054906101000a900473ffffffffffffffffffffffffffffffffffffffff1673ffffffffffffffffffffffffffffffffffffffff163373ffffffffffffffffffffffffffffffffffffffff1614151561232657600080fd5b8360086000826000191660001916815260200190815260200160002060009054906101000a900460ff16151561235b57600080fd5b8260076000876000191660001916815260200190815260200160002060080181600019169055507f35a304a3f1256e5c46f20a066535a58486d1322cf98f998f40cc75f94e2da62b858585856040518085600019166000191681526020018460001916600019168152602001836000191660001916815260200182815260200194505050505060405180910390a15050505050565b600061248182600560003373ffffffffffffffffffffffffffffffffffffffff1673ffffffffffffffffffffffffffffffffffffffff16815260200190815260200160002060008673ffffffffffffffffffffffffffffffffffffffff1673ffffffffffffffffffffffffffffffffffffffff168152602001908152602001600020546128cd90919063ffffffff16565b600560003373ffffffffffffffffffffffffffffffffffffffff1673ffffffffffffffffffffffffffffffffffffffff16815260200190815260200160002060008573ffffffffffffffffffffffffffffffffffffffff1673ffffffffffffffffffffffffffffffffffffffff168152602001908152602001600020819055508273ffffffffffffffffffffffffffffffffffffffff163373ffffffffffffffffffffffffffffffffffffffff167f8c5be1e5ebec7d5bd14f71427d1e84f3dd0314c0f7b2291e5b200ac8c7c3b925600560003373ffffffffffffffffffffffffffffffffffffffff1673ffffffffffffffffffffffffffffffffffffffff16815260200190815260200160002060008773ffffffffffffffffffffffffffffffffffffffff1673ffffffffffffffffffffffffffffffffffffffff168152602001908152602001600020546040518082815260200191505060405180910390a36001905092915050565b6000600560008473ffffffffffffffffffffffffffffffffffffffff1673ffffffffffffffffffffffffffffffffffffffff16815260200190815260200160002060008373ffffffffffffffffffffffffffffffffffffffff1673ffffffffffffffffffffffffffffffffffffffff16815260200190815260200160002054905092915050565b600660009054906101000a900473ffffffffffffffffffffffffffffffffffffffff1673ffffffffffffffffffffffffffffffffffffffff163373ffffffffffffffffffffffffffffffffffffffff161415156126cf57600080fd5b7f7269d4c1ee66d96ab18feab6c176c9dca6d3bff235be726d99badb71bab2048c87878787878787604051808860001916600019168152602001876000191660001916815260200186600019166000191681526020018573ffffffffffffffffffffffffffffffffffffffff1673ffffffffffffffffffffffffffffffffffffffff1681526020018473ffffffffffffffffffffffffffffffffffffffff1673ffffffffffffffffffffffffffffffffffffffff16815260200183815260200182815260200197505050505050505060405180910390a150505050505050565b600660009054906101000a900473ffffffffffffffffffffffffffffffffffffffff1673ffffffffffffffffffffffffffffffffffffffff163373ffffffffffffffffffffffffffffffffffffffff1614151561280b57600080fd5b8060046000828254019250508190555080600360003373ffffffffffffffffffffffffffffffffffffffff1673ffffffffffffffffffffffffffffffffffffffff1681526020019081526020016000206000828254019250508190555050565b6000600360008373ffffffffffffffffffffffffffffffffffffffff1673ffffffffffffffffffffffffffffffffffffffff168152602001908152602001600020549050919050565b60008282111515156128c257fe5b818303905092915050565b600081830190508281101515156128e057fe5b809050929150505600a165627a7a72305820d9189bcce3177be2005a0c01f11c5f7e33e98b6523ed71f11759560d1e2f70ce0029",
  "source": "pragma solidity ^0.4.0;\r\nimport \"./LandRecordContract.sol\";\r\nimport 'zeppelin-solidity/contracts/token/ERC20/StandardToken.sol';\r\n\r\ncontract LandRegistry is LandRecordContract, StandardToken {\r\n    address admin;\r\n\r\n    struct RegistryRecord {\r\n        bytes32 propertyId;\r\n        address owner;\r\n        address buyer;\r\n\r\n        address ownersFinancer;\r\n        uint loanAmount;\r\n        uint outstandingLoan;\r\n\r\n        address buyersFinancer;\r\n        uint buyerFinanceAmount;\r\n\r\n        bytes32 status;\r\n\r\n        uint sellPrice;\r\n        uint tokenAmount;\r\n        uint registartionCharges;\r\n    }\r\n\r\n    mapping(bytes32 => RegistryRecord) registry;\r\n    mapping(bytes32 => bool) registryMap;\r\n\r\n    modifier isAdmin() {\r\n        require(msg.sender == admin);\r\n        _;\r\n    }\r\n\r\n    modifier isNewRegistry(bytes32 registryId) {\r\n        require(!registryMap[registryId]);\r\n        _;\r\n    }\r\n\r\n    modifier isRegistryExists(bytes32 registryId) {\r\n        require(registryMap[registryId]);\r\n        _;\r\n    }\r\n\r\n    event AddRegistryRecord(\r\n        bytes32 registryId,\r\n        bytes32 propertyId,\r\n        address owner,\r\n        uint sellPrice,\r\n        uint tokenAmount,\r\n        uint created\r\n    );\r\n\r\n    event AddBuyer(\r\n        bytes32 registryId,\r\n        bytes32 propertyId,\r\n        address buyer,\r\n        uint created\r\n    );\r\n\r\n    event AddOwnerFinancer(\r\n        bytes32 registryId,\r\n        bytes32 propertyId,\r\n        address ownersFinancer,\r\n        uint loanAmount,\r\n        uint outstandingLoan,\r\n        uint created\r\n    );\r\n\r\n    event AddBuyerFinancer(\r\n        bytes32 registryId,\r\n        bytes32 propertyId,\r\n        address buyersFinancer,\r\n        uint buyerFinanceAmount,\r\n        uint created\r\n    );\r\n\r\n    event SetRegistrationFees(\r\n        bytes32 registryId,\r\n        bytes32 propertyId,\r\n        uint registartionCharges,\r\n        uint created\r\n    );\r\n\r\n    event SetStatus(\r\n        bytes32 registryId,\r\n        bytes32 propertyId,\r\n        bytes32 status,\r\n        uint created\r\n    );\r\n\r\n    event TransferTokens(\r\n        bytes32 registryId,\r\n        bytes32 propertyId,\r\n        bytes32 transactionType,\r\n        address from,\r\n        address to,\r\n        uint amount,\r\n        uint created\r\n    );\r\n\r\n    constructor() public {\r\n        admin = msg.sender;\r\n        totalSupply_ = 1000000000000;\r\n        balances[msg.sender] = 1000000000000;\r\n    }\r\n\r\n    function getBalance(address _address) public view returns(uint) {\r\n         return balances[_address];\r\n    }\r\n\r\n    function getTotalSupply() public view returns(uint) {\r\n        return totalSupply_;\r\n    }\r\n\r\n    function addTokenSupply(uint _tokens) public isAdmin {\r\n        totalSupply_ += _tokens;\r\n        balances[msg.sender] += _tokens;\r\n    }\r\n\r\n    function addRegistryRecord(\r\n        bytes32 _registryId,\r\n        bytes32 _propertyId,\r\n        address _owner,\r\n        uint _sellPrice,\r\n        uint _tokenAmount,\r\n        uint _created\r\n    ) public isAdmin isNewRegistry(_registryId) {\r\n\r\n        registry[_registryId].propertyId= _propertyId;\r\n        registry[_registryId].owner= _owner;\r\n        registry[_registryId].sellPrice= _sellPrice;\r\n        registry[_registryId].tokenAmount= _tokenAmount;\r\n\r\n        registryMap[_registryId] = true;\r\n\r\n        emit AddRegistryRecord(\r\n            _registryId,\r\n            _propertyId,\r\n            _owner,\r\n            _sellPrice,\r\n            _tokenAmount,\r\n            _created\r\n        );\r\n    }\r\n\r\n    function addBuyer(\r\n        bytes32 _registryId,\r\n        bytes32 _propertyId,\r\n        address _buyer,\r\n        uint _created\r\n    ) public isAdmin isRegistryExists(_registryId) {\r\n        registry[_registryId].buyer= _buyer;\r\n\r\n        emit AddBuyer(\r\n            _registryId,\r\n            _propertyId,\r\n            _buyer,\r\n            _created\r\n        );\r\n    }\r\n\r\n    function addOwnerFinancer(\r\n        bytes32 _registryId,\r\n        bytes32 _propertyId,\r\n        address _ownersFinancer,\r\n        uint _loanAmount,\r\n        uint _outstandingLoan,\r\n        uint _created\r\n    ) public isAdmin isRegistryExists(_registryId) {\r\n        registry[_registryId].ownersFinancer= _ownersFinancer;\r\n        registry[_registryId].loanAmount= _loanAmount;\r\n        registry[_registryId].outstandingLoan= _outstandingLoan;\r\n\r\n        emit AddOwnerFinancer(\r\n            _registryId,\r\n            _propertyId,\r\n            _ownersFinancer,\r\n            _loanAmount,\r\n            _outstandingLoan,\r\n            _created\r\n        );\r\n    }\r\n\r\n    function addBuyerFinancer(\r\n        bytes32 _registryId,\r\n        bytes32 _propertyId,\r\n        address _buyersFinancer,\r\n        uint _buyerFinanceAmount,\r\n        uint _created\r\n    ) public isAdmin isRegistryExists(_registryId){\r\n        registry[_registryId].buyersFinancer= _buyersFinancer;\r\n        registry[_registryId].buyerFinanceAmount= _buyerFinanceAmount;\r\n\r\n        emit AddBuyerFinancer(\r\n            _registryId,\r\n            _propertyId,\r\n            _buyersFinancer,\r\n            _buyerFinanceAmount,\r\n            _created\r\n        );\r\n    }\r\n\r\n    function setRegistrationFees(\r\n        bytes32 _registryId,\r\n        bytes32 _propertyId,\r\n        uint _registartionCharges,\r\n        uint _created\r\n    ) public isAdmin isRegistryExists(_registryId) {\r\n        registry[_registryId].registartionCharges= _registartionCharges;\r\n        emit SetRegistrationFees(\r\n            _registryId,\r\n            _propertyId,\r\n            _registartionCharges,\r\n            _created\r\n        );\r\n    }\r\n\r\n    function setStatus(\r\n        bytes32 _registryId,\r\n        bytes32 _propertyId,\r\n        bytes32 _status,\r\n        uint _created\r\n    ) public isAdmin isRegistryExists(_registryId) {\r\n        registry[_registryId].status= _status;\r\n        emit SetStatus(\r\n            _registryId,\r\n            _propertyId,\r\n            _status,\r\n            _created\r\n        );\r\n    }\r\n\r\n    function transferTokens(\r\n        bytes32 _registryId,\r\n        bytes32 _propertyId,\r\n        bytes32 _transactionType,\r\n        address _from,\r\n        address _to,\r\n        uint _amount,\r\n        uint _created\r\n    ) public isAdmin {\r\n        emit TransferTokens(\r\n            _registryId,\r\n            _propertyId,\r\n            _transactionType,\r\n            _from,\r\n            _to,\r\n            _amount,\r\n            _created\r\n        );\r\n    }\r\n\r\n    //fallback function\r\n    function fallback() public payable {}\r\n\r\n    //self destruct\r\n    function close() public isAdmin {\r\n        selfdestruct(admin);\r\n    }\r\n}",
  "sourcePath": "F:\\projects\\land-registry-mhgov\\server\\deployer\\contracts\\LandRegistry.sol",
  "compiler": {
    "name": "solc",
    "version": "0.4.25+commit.59dbf8f1.Emscripten.clang"
  },
  "schemaVersion": "2.0.2",
  "updatedAt": "2019-02-13T10:56:43.384Z"
}