{
  "contractName": "LandRecordContract",
  "abi": [
    {
      "inputs": [],
      "payable": false,
      "stateMutability": "nonpayable",
      "type": "constructor"
    },
    {
      "anonymous": false,
      "inputs": [
        {
          "indexed": false,
          "name": "propertyId",
          "type": "bytes32"
        },
        {
          "indexed": false,
          "name": "surveyNo",
          "type": "bytes32"
        },
        {
          "indexed": false,
          "name": "landType",
          "type": "bytes32"
        },
        {
          "indexed": false,
          "name": "area",
          "type": "uint256"
        },
        {
          "indexed": false,
          "name": "openParking",
          "type": "uint256"
        },
        {
          "indexed": false,
          "name": "coveredParking",
          "type": "uint256"
        },
        {
          "indexed": false,
          "name": "floorNo",
          "type": "uint8"
        },
        {
          "indexed": false,
          "name": "owner",
          "type": "address"
        },
        {
          "indexed": false,
          "name": "created",
          "type": "uint256"
        }
      ],
      "name": "AddProperty",
      "type": "event"
    },
    {
      "anonymous": false,
      "inputs": [
        {
          "indexed": false,
          "name": "propertyId",
          "type": "bytes32"
        },
        {
          "indexed": false,
          "name": "owner",
          "type": "address"
        },
        {
          "indexed": false,
          "name": "created",
          "type": "uint256"
        }
      ],
      "name": "AddOwner",
      "type": "event"
    },
    {
      "anonymous": false,
      "inputs": [
        {
          "indexed": false,
          "name": "propertyId",
          "type": "bytes32"
        },
        {
          "indexed": false,
          "name": "status",
          "type": "bytes32"
        },
        {
          "indexed": false,
          "name": "created",
          "type": "uint256"
        }
      ],
      "name": "SetStatus",
      "type": "event"
    },
    {
      "constant": false,
      "inputs": [
        {
          "name": "_propertyId",
          "type": "bytes32"
        },
        {
          "name": "_surveyNo",
          "type": "bytes32"
        },
        {
          "name": "_landType",
          "type": "bytes32"
        },
        {
          "name": "_area",
          "type": "uint256"
        },
        {
          "name": "_openParking",
          "type": "uint256"
        },
        {
          "name": "_coveredParking",
          "type": "uint256"
        },
        {
          "name": "_floorNo",
          "type": "uint8"
        },
        {
          "name": "_owner",
          "type": "address"
        },
        {
          "name": "_status",
          "type": "bytes32"
        },
        {
          "name": "_created",
          "type": "uint256"
        }
      ],
      "name": "addProperty",
      "outputs": [],
      "payable": false,
      "stateMutability": "nonpayable",
      "type": "function"
    },
    {
      "constant": false,
      "inputs": [
        {
          "name": "_propertyId",
          "type": "bytes32"
        },
        {
          "name": "_owner",
          "type": "address"
        },
        {
          "name": "_created",
          "type": "uint256"
        }
      ],
      "name": "addOwner",
      "outputs": [],
      "payable": false,
      "stateMutability": "nonpayable",
      "type": "function"
    },
    {
      "constant": false,
      "inputs": [
        {
          "name": "_propertyId",
          "type": "bytes32"
        },
        {
          "name": "_status",
          "type": "bytes32"
        },
        {
          "name": "_created",
          "type": "uint256"
        }
      ],
      "name": "setStatus",
      "outputs": [],
      "payable": false,
      "stateMutability": "nonpayable",
      "type": "function"
    },
    {
      "constant": true,
      "inputs": [
        {
          "name": "_propertyId",
          "type": "bytes32"
        }
      ],
      "name": "getStatus",
      "outputs": [
        {
          "name": "",
          "type": "bytes32"
        }
      ],
      "payable": false,
      "stateMutability": "view",
      "type": "function"
    },
    {
      "constant": false,
      "inputs": [],
      "name": "fallback",
      "outputs": [],
      "payable": true,
      "stateMutability": "payable",
      "type": "function"
    }
  ],
  "bytecode": "0x608060405234801561001057600080fd5b50336000806101000a81548173ffffffffffffffffffffffffffffffffffffffff021916908373ffffffffffffffffffffffffffffffffffffffff16021790555061087a806100606000396000f30060806040526004361061006d576000357c0100000000000000000000000000000000000000000000000000000000900463ffffffff168063211cb33514610072578063552079dc146100bb5780635de28ae0146100c55780637935e145146101125780639593c9321461016d575b600080fd5b34801561007e57600080fd5b506100b9600480360381019080803560001916906020019092919080356000191690602001909291908035906020019092919050505061021d565b005b6100c3610331565b005b3480156100d157600080fd5b506100f46004803603810190808035600019169060200190929190505050610333565b60405180826000191660001916815260200191505060405180910390f35b34801561011e57600080fd5b5061016b6004803603810190808035600019169060200190929190803573ffffffffffffffffffffffffffffffffffffffff16906020019092919080359060200190929190505050610391565b005b34801561017957600080fd5b5061021b600480360381019080803560001916906020019092919080356000191690602001909291908035600019169060200190929190803590602001909291908035906020019092919080359060200190929190803560ff169060200190929190803573ffffffffffffffffffffffffffffffffffffffff169060200190929190803560001916906020019092919080359060200190929190505050610524565b005b6000809054906101000a900473ffffffffffffffffffffffffffffffffffffffff1673ffffffffffffffffffffffffffffffffffffffff163373ffffffffffffffffffffffffffffffffffffffff1614151561027857600080fd5b8260026000826000191660001916815260200190815260200160002060009054906101000a900460ff1615156102ad57600080fd5b8260016000866000191660001916815260200190815260200160002060070181600019169055507f90c0e5c4cf2a06aa3aa5f8550cae741e2127b3dd21c8e18e05d59f509b8836638484846040518084600019166000191681526020018360001916600019168152602001828152602001935050505060405180910390a150505050565b565b60008160026000826000191660001916815260200190815260200160002060009054906101000a900460ff16151561036a57600080fd5b60016000846000191660001916815260200190815260200160002060070154915050919050565b6000809054906101000a900473ffffffffffffffffffffffffffffffffffffffff1673ffffffffffffffffffffffffffffffffffffffff163373ffffffffffffffffffffffffffffffffffffffff161415156103ec57600080fd5b8260026000826000191660001916815260200190815260200160002060009054906101000a900460ff16151561042157600080fd5b6001600085600019166000191681526020019081526020016000206006018390806001815401808255809150509060018203906000526020600020016000909192909190916101000a81548173ffffffffffffffffffffffffffffffffffffffff021916908373ffffffffffffffffffffffffffffffffffffffff160217905550507ff74d419ebdc1791db7974a209414e8be1f2608830929fc6f4cedf25e5afc34da8484846040518084600019166000191681526020018373ffffffffffffffffffffffffffffffffffffffff1673ffffffffffffffffffffffffffffffffffffffff168152602001828152602001935050505060405180910390a150505050565b6000809054906101000a900473ffffffffffffffffffffffffffffffffffffffff1673ffffffffffffffffffffffffffffffffffffffff163373ffffffffffffffffffffffffffffffffffffffff1614151561057f57600080fd5b8960026000826000191660001916815260200190815260200160002060009054906101000a900460ff161515156105b557600080fd5b89600160008d60001916600019168152602001908152602001600020600001816000191690555088600160008d60001916600019168152602001908152602001600020600101816000191690555087600160008d600019166000191681526020019081526020016000206002018190555086600160008d600019166000191681526020019081526020016000206003018190555085600160008d600019166000191681526020019081526020016000206004018190555084600160008d6000191660001916815260200190815260200160002060050160006101000a81548160ff021916908360ff160217905550600160008c600019166000191681526020019081526020016000206006018490806001815401808255809150509060018203906000526020600020016000909192909190916101000a81548173ffffffffffffffffffffffffffffffffffffffff021916908373ffffffffffffffffffffffffffffffffffffffff1602179055505082600160008d6000191660001916815260200190815260200160002060070181600019169055506001600260008d6000191660001916815260200190815260200160002060006101000a81548160ff0219169083151502179055507f3f80abcf4ced220fffe1886ed472f749f81b58d6afc8562fa9b3df6ee4edc3758b8b8b8b8b8b8b8b8a604051808a60001916600019168152602001896000191660001916815260200188600019166000191681526020018781526020018681526020018581526020018460ff1660ff1681526020018373ffffffffffffffffffffffffffffffffffffffff1673ffffffffffffffffffffffffffffffffffffffff168152602001828152602001995050505050505050505060405180910390a150505050505050505050505600a165627a7a723058207a3abebe3fbe12a066d82008eb2ddf44e432f9180156409a12e085ad96cb9ca40029",
  "source": "pragma solidity ^0.4.0;\r\ncontract LandRecordContract {\r\n\r\n    //Data Structures\r\n    address admin;\r\n\r\n    struct LandRecord {\r\n        bytes32 surveyNo;\r\n        bytes32 landType;\r\n        uint area;\r\n        uint openParking;\r\n        uint coveredParking;\r\n        uint8 floorNo;\r\n        address[] owners;\r\n        bytes32 status;\r\n    }\r\n\r\n    mapping(bytes32 => LandRecord) properties;\r\n    mapping(bytes32 => bool) propertyMap;\r\n\r\n    //Modifiers\r\n    modifier isAdmin() {\r\n        require(msg.sender == admin);\r\n        _;\r\n    }\r\n\r\n    modifier isNewProperty(bytes32 _propertyId) {\r\n        require(!propertyMap[_propertyId]);\r\n        _;\r\n    }\r\n\r\n    modifier isPropertyExists(bytes32 _propertyId) {\r\n        require(propertyMap[_propertyId]);\r\n        _;\r\n    }\r\n\r\n    event AddProperty (\r\n        bytes32 propertyId,\r\n        bytes32 surveyNo,\r\n        bytes32 landType,\r\n        uint area,\r\n        uint openParking,\r\n        uint coveredParking,\r\n        uint8 floorNo,\r\n        address owner,\r\n        uint created\r\n    );\r\n\r\n    event AddOwner(\r\n        bytes32 propertyId,\r\n        address owner,\r\n        uint created\r\n    );\r\n\r\n    event SetStatus(\r\n        bytes32 propertyId,\r\n        bytes32 status,\r\n        uint created\r\n    );\r\n\r\n    //Functions\r\n    constructor() public {\r\n        admin = msg.sender;\r\n    }\r\n\r\n    function addProperty(\r\n        bytes32 _propertyId,\r\n        bytes32 _surveyNo,\r\n        bytes32 _landType,\r\n        uint _area,\r\n        uint _openParking,\r\n        uint _coveredParking,\r\n        uint8 _floorNo,\r\n        address _owner,\r\n        bytes32 _status,\r\n        uint _created\r\n    ) public isAdmin isNewProperty(_propertyId) {\r\n        properties[_propertyId].surveyNo = _surveyNo;\r\n        properties[_propertyId].landType = _landType;\r\n        properties[_propertyId].area = _area;\r\n        properties[_propertyId].openParking = _openParking;\r\n        properties[_propertyId].coveredParking = _coveredParking;\r\n        properties[_propertyId].floorNo = _floorNo;\r\n        properties[_propertyId].owners.push(_owner);\r\n        properties[_propertyId].status = _status;\r\n\r\n        propertyMap[_propertyId] = true;\r\n\r\n        emit AddProperty(\r\n            _propertyId,\r\n            _surveyNo,\r\n            _landType,\r\n            _area,\r\n            _openParking,\r\n            _coveredParking,\r\n            _floorNo,\r\n            _owner,\r\n            _created\r\n        );\r\n    }\r\n\r\n    function addOwner(\r\n        bytes32 _propertyId,\r\n        address _owner,\r\n        uint _created\r\n    ) public isAdmin isPropertyExists(_propertyId) {\r\n\r\n        properties[_propertyId].owners.push(_owner);\r\n\r\n        emit AddOwner(\r\n            _propertyId,\r\n            _owner,\r\n            _created\r\n        );\r\n    }\r\n\r\n    function setStatus(\r\n        bytes32 _propertyId,\r\n        bytes32 _status,\r\n        uint _created\r\n    ) public isAdmin isPropertyExists(_propertyId) {\r\n\r\n        properties[_propertyId].status = _status;\r\n\r\n        emit SetStatus(\r\n            _propertyId,\r\n            _status,\r\n            _created\r\n        );\r\n    }\r\n\r\n\r\n    function getStatus(bytes32 _propertyId) public view isPropertyExists(_propertyId) returns (\r\n        bytes32\r\n    ) {\r\n        return (\r\n            properties[_propertyId].status\r\n        );\r\n    }\r\n\r\n    //fallback function\r\n    function fallback() public payable {}\r\n\r\n    //self destruct\r\n    //function close() public isAdmin {\r\n    //    selfdestruct(admin);\r\n    //}\r\n}\r\n",
  "sourcePath": "F:\\projects\\land-registry-mhgov\\server\\deployer\\contracts\\LandRecordContract.sol",
  "compiler": {
    "name": "solc",
    "version": "0.4.25+commit.59dbf8f1.Emscripten.clang"
  },
  "schemaVersion": "2.0.2",
  "updatedAt": "2019-02-13T10:56:43.374Z"
}